{
  "address": "0xe7f1725E7734CE288F8367e1Bb143E90bb3F0512",
  "abi": [
    {
      "inputs": [
        {
          "internalType": "address",
          "name": "_priceFeedAddress",
          "type": "address"
        }
      ],
      "stateMutability": "nonpayable",
      "type": "constructor"
    },
    {
      "inputs": [],
      "name": "FundMe__NotOwner",
      "type": "error"
    },
    {
      "stateMutability": "payable",
      "type": "fallback"
    },
    {
      "inputs": [],
      "name": "MIN_USD",
      "outputs": [
        {
          "internalType": "uint256",
          "name": "",
          "type": "uint256"
        }
      ],
      "stateMutability": "view",
      "type": "function"
    },
    {
      "inputs": [],
      "name": "fund",
      "outputs": [],
      "stateMutability": "payable",
      "type": "function"
    },
    {
      "inputs": [
        {
          "internalType": "address",
          "name": "funder",
          "type": "address"
        }
      ],
      "name": "getAddressToFund",
      "outputs": [
        {
          "internalType": "uint256",
          "name": "",
          "type": "uint256"
        }
      ],
      "stateMutability": "view",
      "type": "function"
    },
    {
      "inputs": [
        {
          "internalType": "uint256",
          "name": "idx",
          "type": "uint256"
        }
      ],
      "name": "getFunder",
      "outputs": [
        {
          "internalType": "address",
          "name": "",
          "type": "address"
        }
      ],
      "stateMutability": "view",
      "type": "function"
    },
    {
      "inputs": [],
      "name": "getOwner",
      "outputs": [
        {
          "internalType": "address",
          "name": "",
          "type": "address"
        }
      ],
      "stateMutability": "view",
      "type": "function"
    },
    {
      "inputs": [],
      "name": "getPriceFeed",
      "outputs": [
        {
          "internalType": "contract AggregatorV3Interface",
          "name": "",
          "type": "address"
        }
      ],
      "stateMutability": "view",
      "type": "function"
    },
    {
      "inputs": [],
      "name": "withdraw",
      "outputs": [],
      "stateMutability": "nonpayable",
      "type": "function"
    },
    {
      "stateMutability": "payable",
      "type": "receive"
    }
  ],
  "transactionHash": "0xf16e827c6e060b45c798937d82bb8996cf7d9492118ef4a3806ef73a2df2548c",
  "args": [
    "0x5FbDB2315678afecb367f032d93F642f64180aa3"
  ],
  "numDeployments": 1,
  "solcInputHash": "c8eb007e758b550968f6ab45341393df",
  "bytecode": "0x60a060405234801561001057600080fd5b50604051620010553803806200105583398181016040528101906100349190610112565b3373ffffffffffffffffffffffffffffffffffffffff1660808173ffffffffffffffffffffffffffffffffffffffff168152505080600260006101000a81548173ffffffffffffffffffffffffffffffffffffffff021916908373ffffffffffffffffffffffffffffffffffffffff1602179055505061013f565b600080fd5b600073ffffffffffffffffffffffffffffffffffffffff82169050919050565b60006100df826100b4565b9050919050565b6100ef816100d4565b81146100fa57600080fd5b50565b60008151905061010c816100e6565b92915050565b600060208284031215610128576101276100af565b5b6000610136848285016100fd565b91505092915050565b608051610ef362000162600039600081816103ec015261068c0152610ef36000f3fe6080604052600436106100745760003560e01c80639e87a5cd1161004e5780639e87a5cd14610137578063a5af897014610162578063b60d42881461019f578063d7b4750c146101a9576100c8565b8063213dbea2146100ca5780633ccfd60b146100f5578063893d20e81461010c576100c8565b366100c8576802b5e3af16b18800006100b8600260009054906101000a900473ffffffffffffffffffffffffffffffffffffffff16346101e690919063ffffffff16565b106100c6576100c5610222565b5b005b005b3480156100d657600080fd5b506100df6103dd565b6040516100ec91906108bb565b60405180910390f35b34801561010157600080fd5b5061010a6103ea565b005b34801561011857600080fd5b50610121610688565b60405161012e9190610917565b60405180910390f35b34801561014357600080fd5b5061014c6106b0565b6040516101599190610991565b60405180910390f35b34801561016e57600080fd5b50610189600480360381019061018491906109dd565b6106da565b60405161019691906108bb565b60405180910390f35b6101a7610222565b005b3480156101b557600080fd5b506101d060048036038101906101cb9190610a36565b610723565b6040516101dd9190610917565b60405180910390f35b6000806101f28361076a565b90506000670de0b6b3a7640000858361020b9190610a92565b6102159190610b03565b9050809250505092915050565b6802b5e3af16b1880000610261600260009054906101000a900473ffffffffffffffffffffffffffffffffffffffff16346101e690919063ffffffff16565b10156102a2576040517f08c379a000000000000000000000000000000000000000000000000000000000815260040161029990610b91565b60405180910390fd5b6000600160003373ffffffffffffffffffffffffffffffffffffffff1673ffffffffffffffffffffffffffffffffffffffff168152602001908152602001600020540361034d576000339080600181540180825580915050600190039060005260206000200160009091909190916101000a81548173ffffffffffffffffffffffffffffffffffffffff021916908373ffffffffffffffffffffffffffffffffffffffff1602179055505b34600160003373ffffffffffffffffffffffffffffffffffffffff1673ffffffffffffffffffffffffffffffffffffffff168152602001908152602001600020546103989190610bb1565b600160003373ffffffffffffffffffffffffffffffffffffffff1673ffffffffffffffffffffffffffffffffffffffff16815260200190815260200160002081905550565b6802b5e3af16b188000081565b7f000000000000000000000000000000000000000000000000000000000000000073ffffffffffffffffffffffffffffffffffffffff163373ffffffffffffffffffffffffffffffffffffffff161461046f576040517f579610db00000000000000000000000000000000000000000000000000000000815260040160405180910390fd5b6000808054806020026020016040519081016040528092919081815260200182805480156104f257602002820191906000526020600020905b8160009054906101000a900473ffffffffffffffffffffffffffffffffffffffff1673ffffffffffffffffffffffffffffffffffffffff16815260200190600101908083116104a8575b5050505050905060005b81518110156105775760006001600084848151811061051e5761051d610be5565b5b602002602001015173ffffffffffffffffffffffffffffffffffffffff1673ffffffffffffffffffffffffffffffffffffffff16815260200190815260200160002081905550808061056f90610c14565b9150506104fc565b50600067ffffffffffffffff81111561059357610592610c5c565b5b6040519080825280602002602001820160405280156105c15781602001602082028036833780820191505090505b50600090805190602001906105d79291906107fb565b5060003373ffffffffffffffffffffffffffffffffffffffff16476040516105fe90610cbc565b60006040518083038185875af1925050503d806000811461063b576040519150601f19603f3d011682016040523d82523d6000602084013e610640565b606091505b5050905080610684576040517f08c379a000000000000000000000000000000000000000000000000000000000815260040161067b90610d1d565b60405180910390fd5b5050565b60007f0000000000000000000000000000000000000000000000000000000000000000905090565b6000600260009054906101000a900473ffffffffffffffffffffffffffffffffffffffff16905090565b6000600160008373ffffffffffffffffffffffffffffffffffffffff1673ffffffffffffffffffffffffffffffffffffffff168152602001908152602001600020549050919050565b600080828154811061073857610737610be5565b5b9060005260206000200160009054906101000a900473ffffffffffffffffffffffffffffffffffffffff169050919050565b6000808273ffffffffffffffffffffffffffffffffffffffff1663feaf968c6040518163ffffffff1660e01b815260040160a060405180830381865afa1580156107b8573d6000803e3d6000fd5b505050506040513d601f19601f820116820180604052508101906107dc9190610dca565b5050509150506402540be400816107f39190610e45565b915050919050565b828054828255906000526020600020908101928215610874579160200282015b828111156108735782518260006101000a81548173ffffffffffffffffffffffffffffffffffffffff021916908373ffffffffffffffffffffffffffffffffffffffff1602179055509160200191906001019061081b565b5b5090506108819190610885565b5090565b5b8082111561089e576000816000905550600101610886565b5090565b6000819050919050565b6108b5816108a2565b82525050565b60006020820190506108d060008301846108ac565b92915050565b600073ffffffffffffffffffffffffffffffffffffffff82169050919050565b6000610901826108d6565b9050919050565b610911816108f6565b82525050565b600060208201905061092c6000830184610908565b92915050565b6000819050919050565b600061095761095261094d846108d6565b610932565b6108d6565b9050919050565b60006109698261093c565b9050919050565b600061097b8261095e565b9050919050565b61098b81610970565b82525050565b60006020820190506109a66000830184610982565b92915050565b600080fd5b6109ba816108f6565b81146109c557600080fd5b50565b6000813590506109d7816109b1565b92915050565b6000602082840312156109f3576109f26109ac565b5b6000610a01848285016109c8565b91505092915050565b610a13816108a2565b8114610a1e57600080fd5b50565b600081359050610a3081610a0a565b92915050565b600060208284031215610a4c57610a4b6109ac565b5b6000610a5a84828501610a21565b91505092915050565b7f4e487b7100000000000000000000000000000000000000000000000000000000600052601160045260246000fd5b6000610a9d826108a2565b9150610aa8836108a2565b9250828202610ab6816108a2565b91508282048414831517610acd57610acc610a63565b5b5092915050565b7f4e487b7100000000000000000000000000000000000000000000000000000000600052601260045260246000fd5b6000610b0e826108a2565b9150610b19836108a2565b925082610b2957610b28610ad4565b5b828204905092915050565b600082825260208201905092915050565b7f4469646e27742073656e6420656e6f7567682045544800000000000000000000600082015250565b6000610b7b601683610b34565b9150610b8682610b45565b602082019050919050565b60006020820190508181036000830152610baa81610b6e565b9050919050565b6000610bbc826108a2565b9150610bc7836108a2565b9250828201905080821115610bdf57610bde610a63565b5b92915050565b7f4e487b7100000000000000000000000000000000000000000000000000000000600052603260045260246000fd5b6000610c1f826108a2565b91507fffffffffffffffffffffffffffffffffffffffffffffffffffffffffffffffff8203610c5157610c50610a63565b5b600182019050919050565b7f4e487b7100000000000000000000000000000000000000000000000000000000600052604160045260246000fd5b600081905092915050565b50565b6000610ca6600083610c8b565b9150610cb182610c96565b600082019050919050565b6000610cc782610c99565b9150819050919050565b7f4661696c656420746f2077697468647261772066756e64730000000000000000600082015250565b6000610d07601883610b34565b9150610d1282610cd1565b602082019050919050565b60006020820190508181036000830152610d3681610cfa565b9050919050565b600069ffffffffffffffffffff82169050919050565b610d5c81610d3d565b8114610d6757600080fd5b50565b600081519050610d7981610d53565b92915050565b6000819050919050565b610d9281610d7f565b8114610d9d57600080fd5b50565b600081519050610daf81610d89565b92915050565b600081519050610dc481610a0a565b92915050565b600080600080600060a08688031215610de657610de56109ac565b5b6000610df488828901610d6a565b9550506020610e0588828901610da0565b9450506040610e1688828901610db5565b9350506060610e2788828901610db5565b9250506080610e3888828901610d6a565b9150509295509295909350565b6000610e5082610d7f565b9150610e5b83610d7f565b9250828202610e6981610d7f565b91507f80000000000000000000000000000000000000000000000000000000000000008414600084121615610ea157610ea0610a63565b5b8282058414831517610eb657610eb5610a63565b5b509291505056fea26469706673582212203528d54a70b16cbb33969518c79806144513120ab9ce1c1be1ac094b4b79d85564736f6c63430008110033",
  "devdoc": {
    "author": "Vedant Patil",
    "kind": "dev",
    "methods": {},
    "title": "A contract for crowdfunding",
    "version": 1
  },
  "userdoc": {
    "kind": "user",
    "methods": {},
    "notice": "This is a demo contract for funding",
    "version": 1
  },
  "storageLayout": {
    "storage": [
      {
        "astId": 65,
        "contract": "contracts/FundMe.sol:FundMe",
        "label": "s_funders",
        "offset": 0,
        "slot": "0",
        "type": "t_array(t_address)dyn_storage"
      },
      {
        "astId": 69,
        "contract": "contracts/FundMe.sol:FundMe",
        "label": "s_addressToFunds",
        "offset": 0,
        "slot": "1",
        "type": "t_mapping(t_address,t_uint256)"
      },
      {
        "astId": 72,
        "contract": "contracts/FundMe.sol:FundMe",
        "label": "s_priceFeed",
        "offset": 0,
        "slot": "2",
        "type": "t_contract(AggregatorV3Interface)45"
      }
    ],
    "types": {
      "t_address": {
        "encoding": "inplace",
        "label": "address",
        "numberOfBytes": "20"
      },
      "t_array(t_address)dyn_storage": {
        "base": "t_address",
        "encoding": "dynamic_array",
        "label": "address[]",
        "numberOfBytes": "32"
      },
      "t_contract(AggregatorV3Interface)45": {
        "encoding": "inplace",
        "label": "contract AggregatorV3Interface",
        "numberOfBytes": "20"
      },
      "t_mapping(t_address,t_uint256)": {
        "encoding": "mapping",
        "key": "t_address",
        "label": "mapping(address => uint256)",
        "numberOfBytes": "32",
        "value": "t_uint256"
      },
      "t_uint256": {
        "encoding": "inplace",
        "label": "uint256",
        "numberOfBytes": "32"
      }
    }
  }
}